:200000000C94CB000C94F3000C94F3000C94F3000C94F3000C94F3000C94F3000C94F30070
:200020000C94F3000C94F3000C94F3000C9439040C94F3000C94F3000C94F3000C94F300DE
:200040000C9497030C94F3000C9407040C94E1030C94F3000C94F3000C94F3000C94F30058
:200060000C94F3000C94F30000000000240027002A005B52454144592076325D006B006520
:20008000006500207C20737065656444656C61793D002C20005B4F4B5D20557064617465E1
:2000A0006420616E676C65733A20005B4552524F525D204578706563746564203620616E0F
:2000C000676C6573202B20737065656444656C61792028372076616C75657320746F746103
:2000E0006C29005B4552524F525D204578706563746564203620616E676C6573202B207309
:200100007065656444656C61792028372076616C75657320746F74616C29005B4552524F23
:20012000525D20496E76616C696420636F6D6D616E6420666F726D61742E204D757374206A
:200140007374617274207769746820532C0000000000250028002B0004040404040404045E
:200160000202020202020303030303030102040810204080010204081020010204081020E4
:200180000000000800020100000304070000000000000000F50411241FBECFEFD8E0DEBF28
:2001A000CDBF11E0A0E0B1E0E0E7F1E102C005900D92AE32B107D9F722E0AEE2B1E001C0D6
:2001C0001D92A635B207E1F710E0CBECD0E004C02197FE010E94B008CA3CD107C9F70E9498
:2001E0005A050C94B6080C94000090E0FC01E058FE4F2491FC01E459FE4F3491FC01E85A70
:20020000FE4FE491EE23C9F0222339F0233001F1A8F4213019F1223029F1F0E0EE0FFF1F51
:20022000E25BFE4FA591B4918FB7F894EC91611126C030953E233C938FBF08952730A9F042
:200240002830C9F0243049F7809180008F7D03C0809180008F7780938000DFCF84B58F7782
:2002600084BDDBCF84B58F7DFBCF8091B0008F778093B000D2CF8091B0008F7DF9CF3E2B5B
:20028000DACF3FB7F89480917E0190917F01A0918001B091810126B5A89B05C02F3F19F033
:2002A0000196A11DB11D3FBFBA2FA92F982F8827BC01CD01620F711D811D911D42E0660F79
:2002C000771F881F991F4A95D1F70895AF92BF92CF92DF92EF92FF920F931F93CF93DF9347
:2002E0006C017B018B01040F151FEB015E01AE18BF08C017D10759F06991D601ED91FC9196
:200300000190F081E02DC6010995892B79F7C501DF91CF911F910F91FF90EF90DF90CF9083
:20032000BF90AF900895FC01538D448D252F30E0842F90E0821B930B541710F0CF960895B5
:2003400001970895FC01918D828D981761F0A28DAE0FBF2FB11D5D968C91928D9F5F9F7357
:20036000928F90E008958FEF9FEF0895FC01918D828D981731F0828DE80FF11D858D90E016
:2003800008958FEF9FEF0895FC01918D228D892F90E0805C9F4F821B91098F7399270895C5
:2003A00082E891E00E94C40121E0892B09F420E0822F089580E090E0892B29F00E94D001EB
:2003C00081110C9400000895FC01A48DA80FB92FB11DA35ABF4F2C91848D90E001968F73D1
:2003E0009927848FA689B7892C93A089B1898C91837080648C93938D848D981306C002885A
:20040000F389E02D80818F7D80830895EF92FF920F931F93CF93DF93EC0181E0888F9B8DDF
:200420008C8D98131AC0E889F989808185FF15C09FB7F894EE89FF896083E889F989808119
:200440008370806480839FBF81E090E0DF91CF911F910F91FF90EF900895F62E0B8D10E01C
:200460000F5F1F4F0F731127E02E8C8D8E110CC00FB607FCFACFE889F989808185FFF5CF87
:20048000CE010E94E401F1CFEB8DEC0FFD2FF11DE35AFF4FF0829FB7F8940B8FEA89FB8929
:2004A00080818062CFCF0F931F93CF93DF938C01D0E0C0E0F801EC0FFD1F6491662341F0F7
:2004C00082E891E00E940602892B11F02196F2CFCE01DF91CF911F910F910895CF93DF930A
:2004E000EC01888D8823B9F0AA89BB89E889F9898C9185FD03C0808186FD0DC00FB607FCC1
:20050000F7CF8C9185FFF2CF808185FFEDCFCE010E94E401E9CFDF91CF910895DC01EC919D
:20052000EC3090F511968C91119728E830E0281B310987FD3395220F331F220F331F621746
:20054000730784F012968C9128E532E0281B310987FD3395220F331F220F331F6217730707
:200560000CF49B0122503109220F331F4FB7F8948E2F90E0FC01EE0FFF1FE80FF91FE15E8B
:20058000FD4F328321834FBF08951F93CF93DF93DC018D919C911197FC01E15DFE4F20818C
:2005A0002D3241F5019611969C938E9391E080E0F0E0E0E01AE04D915C911197EA01C15D41
:2005C000DE4F288130ED320F3A30B0F41E9FE0011F9FD00D1124022E000C330B2053310944
:2005E000F901EC0FFD1F4F5F5F4F11965C934E9381E0E1CF90E0DBCF882371F02C3281F40D
:200600004F5F5F4F4D935C93992319F0F195E195F109DB01ED93FC93DF91CF911F910895EC
:20062000222391F380E0F8CF8F929F92AF92BF920F931F93CF93DF93CDB7DEB7A1970FB6A8
:20064000F894DEBF0FBECDBF19A2423008F44AE08E010F5D1F4F842E912CB12CA12CA5019D
:2006600094010E944408E62FB901CA01EA3044F5E05DD801EE938D01232B242B252B79F788
:2006800090E080E0109769F0FD0101900020E9F73197AF014A1B5B0BBD0182E891E00E947D
:2006A0006601A1960FB6F894DEBF0FBECDBFDF91CF911F910F91BF90AF909F908F900895BC
:2006C000E95CD7CFCF92DF92EF92FF92CF93DF936B017C016DE282E891E00E940602EC01CD
:2006E00066277727CB016C197D098E099F094AE00E9414038C0F9D1FDF91CF91FF90EF90A1
:20070000DF90CF90089542E050E06AE271E082E891E00C946601CF93DF930E945302EC01E5
:200720000E9483038C0F9D1FDF91CF9108951F920F920FB60F9211242F933F938F939F93F8
:20074000AF93BF9380917A0190917B01A0917C01B0917D013091790123E0230F2D3758F54E
:200760000196A11DB11D2093790180937A0190937B01A0937C01B0937D0180917E019091DA
:200780007F01A0918001B09181010196A11DB11D80937E0190937F01A0938001B093810193
:2007A000BF91AF919F918F913F912F910F900FBE0F901F90189526E8230F0296A11DB11DFE
:2007C000D2CF1F920F920FB60F9211242F933F934F935F936F937F938F939F93AF93BF9327
:2007E000EF93FF9382E891E00E94E401FF91EF91BF91AF919F918F917F916F915F914F91B3
:200800003F912F910F900FBE0F901F9018951F920F920FB60F9211242F938F939F93EF935C
:20082000FF93E0919201F09193018081E0919801F091990182FD1BC0908180919B018F5FE1
:200840008F7320919C01821741F0E0919B01F0E0EE57FE4F958F80939B01FF91EF919F91FC
:200860008F912F910F900FBE0F901F9018958081F4CF1F920F920FB60F9211242F933F93EC
:200880004F935F936F937F938F939F93AF93BF93CF93DF93EF93FF9380912E01C0914302CA
:2008A000D0E087FF24C0109285001092840080912E018F5F80932E0180912E01082E000CDF
:2008C000990B8C179D0724F480912E018C30C4F18091840090918500049680349C4908F4FA
:2008E0007AC08091840090918500049676C080912E01082E000C990B8C179D07C4F6E0911B
:200900002E018E2FEE0F990BFC01EE0FFF1FE80FF91FE15EFD4F808186FFC9CFE0912E01DA
:200920008E2FEE0F990BFC01EE0FFF1FE80FF91FE15EFD4F808160E08F730E94F500B7CF47
:200940002091840030918500E0912E018E2FEE0F990BFC01EE0FFF1FE80FF91FE15EFD4F6C
:2009600081819281820F931F9093890080938800E0912E018E2FEE0F990BFC01EE0FFF1FC2
:20098000E80FF91FE15EFD4F808186FF11C0E0912E018E2FEE0F990BFC01EE0FFF1FE80F59
:2009A000F91FE15EFD4F808161E08F730E94F500FF91EF91DF91CF91BF91AF919F918F91F9
:2009C0007F916F915F914F913F912F910F900FBE0F901F90189580E49CE990938900809398
:2009E00088008FEF80932E01E3CF109285011092840188EE93E0A0E0B0E0809386019093F8
:200A00008701A0938801B09389018CE191E0909383018093820185EC90E090938F01809303
:200A20008E0184EC90E0909391018093900180EC90E0909393018093920181EC90E09093B5
:200A400095018093940182EC90E0909397018093960186EC90E09093990180939801109228
:200A60009B0110929C0110929D0110929E01E4E4F2E026E532E04FEF68EB7BE08091430221
:200A80008C30B0F491E0980F90934302808390E0DC01AA0FBB1FA80FB91FA15EBD4F129651
:200AA0007C936E93119733962E173F0739F708954083F9CFCF93DF93CDB7DEB7AD970FB6DC
:200AC000F894DEBF0FBECDBF789484B5826084BD84B5816084BD85B5826085BD85B5816058
:200AE00085BD80916E00816080936E00109281008091810082608093810080918100816035
:200B000080938100809180008160809380008091B10084608093B1008091B000816080931D
:200B2000B00080917A00846080937A0080917A00826080937A0080917A00816080937A0016
:200B400080917A00806880937A001092C100E0919201F091930182E08083E0918E01F09133
:200B60008F011082E0919001F091910187E0808310929A01E0919601F091970186E080830D
:200B8000E0919401F0919501808180618083E0919401F0919501808188608083E091940144
:200BA000F0919501808180688083E0919401F091950180818F7D808350E0C52E51E0D52EAE
:200BC00004E412E0F12CE12C6CE0962E72E0772EE4E8AE2EE3E0BE2ED8018C918C3008F009
:200BE00077C0F701EE0FFF1FE45FFE4F20813181C9019927FC01E459FE4F6491FC01E85A83
:200C0000FE4FE491EE23A1F08E2F90E0880F991FFC01E859FF4FA591B491FC01E25BFE4F66
:200C2000459154918FB7F894EC916E2B6C938FBFF8018081682F70E0AB01440F551F460F1B
:200C4000571FFA01E15EFD4F922F9F732081207C292B2083D80111961C92119712961C9265
:200C6000692D0E947508899DA001112430E020E0BA01620F731FFB01EE0FFF1FE60FF71FD3
:200C8000E15EFD4F908196FD15C02F5F3F4F2C30310571F781110EC0109280007092810035
:200CA0001092850010928400B19A80916F00826080936F00D801EC918E2F90E0FC01EE0F3B
:200CC000FF1FE80FF91FE15EFD4F808180648083F601A192B1926F0160EC75E0C8010E948B
:200CE0008E02FFEFEF1AFF0A0D5F1F4F26E0E216F10409F071CF82E790E00E948B031E0136
:200D00008FE0280E311CDE015B96BCA7ABA74E01B7E28B0E911C82E891E00E94C401892B38
:200D200009F486C182E891E00E94A20120917701309178018A3009F06CC1F901E15DFE4F87
:200D40001082121613063CF4F901E25DFE4F80818D3009F4108280912F01843509F05CC0AE
:200D6000809130018C3209F051C182E090E09AA789A77E01EBE1EE0EF11C8701B801CE01C1
:200D800089960E94C502811105C081E890E00E948B0331C10E5F1F4F8016910679F7E9A573
:200DA000FAA5E15DFE4F808134E4C32E32E0D32E40E0A42E41E0B42E882319F08FE790E05D
:200DC000E6CFF701A191B1917F01A930F7E0BF0714F0A8E0B7E0B7FF02C0B0E0A0E0F5015B
:200DE000A193B1935F0120E437E00E94950828E037E040E050E00E942508B901605E7D4F3F
:200E0000C6010E948E02F3E0CF0ED11C0E151F05C1F68DE790E0BBCF833509F0F5C0809159
:200E200030018C3209F0F2C082E090E098A78FA38E010F5F1F4F7801B701C4010E94C5020B
:200E40008DA7811103C083EE90E0A1CF22E0E20EF11C2E143F0481F7EFA1F8A5E15DFE4F04
:200E60008081882319F08BEA90E091CFA801445F5F4FF1016AE0D8018D919D918D0130E07F
:200E800020E097FD0AC0853B910514F084EB90E0689F9001699F300D1124219331934017DA
:200EA000510749F7AD84BE848501B5E1AB16B10414F004E110E017FF02C010E000E084E4AC
:200EC000E82E82E0F82E90E0C92E91E0D92E310120E0F301A191B1913F01F6018191919190
:200EE0006F01A81BB90B11F1AB30B10514F0AAE0B0E0A63FFFEFBF0714F4A6EFBFEFA80FAF
:200F0000B91FF6013297B183A08320E437E00E94950828E037E040E050E00E942508B90190
:200F2000605E7D4FC7010E948E022DA583E0E80EF11CABA5BCA56A167B0659F66801012E5C
:200F4000000CEE08FF08222321F11A141B040CF0B6CF0E9441012B013C010E9441016419B5
:200F6000750986099709683E73408105910558F0B1E0CB1AD108E108F108E8EE4E0EE3E0E1
:200F80005E1E611C711CC114D104E104F10429F796CF85E990E00E94530220E0A22E21E01C
:200FA000B22E10E000E0D5018D919D915D016AE070E00E9481089B01072E000C880B990B28
:200FC00037FF1EC00E9462030530110521F082E990E00E9453020F5F1F4F0630110519F790
:200FE00083E890E00E9453024AE0C701B6010E9414030E94830310927801109277018BCE07
:201000004AE00E941403E0CF8823A9F38BE191E0BECE273431057CF7A9014F5F5F4F5093A1
:20102000780140937701215D3E4FF901808373CE80E090E0892B09F46ECE0E94D0018823C8
:2010400009F469CE0E94000066CE052E97FB1EF400940E943C0857FD07D00E94440807FC19
:2010600003D04EF40C943C0850954095309521953F4F4F4F5F4F0895909580957095619596
:201080007F4F8F4F9F4F0895A1E21A2EAA1BBB1BFD010DC0AA1FBB1FEE1FFF1FA217B307A7
:2010A000E407F50720F0A21BB30BE40BF50B661F771F881F991F1A9469F760957095809538
:2010C00090959B01AC01BD01CF010895A29FB001B39FC001A39F700D811D1124911DB29FE1
:2010E000700D811D1124911D0895991B79E004C0991F961708F0961B881F7A95C9F78095EB
:20110000089597FB072E16F4009407D077FD09D00E949C0807FC05D03EF4909581959F4F30
:201120000895709561957F4F08950E946608B7FF0895821B930B0895AA1BBB1B51E107C0DD
:20114000AA1FBB1FA617B70710F0A61BB70B881F991F5A95A9F780959095BC01CD0108959E
:20116000EE0FFF1F0590F491E02D0994F894FFCF8403840384038403840384030200030007
:201180000400050006000700000000000602660193016E02C401A201B6010D0A000080E030
:2011A000819391930217130771F7F501248435848101F5E12F16310414F004E110E017FF44
:2011C00002C010E000E0A0E0B1E0FE01E15AFF4FF12CE12C819191912D913D91821B930BBF
:2011E00097FF03C0919581959109E816F9060CF47C01CF57DF4F28813981C158D040E2176D
:20120000F30741F7E114F10409F4DDC0CC24C394D12CC7010F2C000CAA0BBB0BED968CAF8C
:201220009DAFAEAFBFAFED97C801012E000CAA0BBB0BC358DF4F88839983AA83BB83CD5795
:20124000D040B6010D2C000C880B990B0E94790A4B015C01ED966CAD7DAD8EAD9FADED97AC
:201260000E94790A9B01AC01C501B4010E947C0C2B013C01AAE9B2E0E596BFAFAEAFE5970B
:20128000FE01E15AFF4FE996FFAFEEAFE99720E031E0E7963FAF2EAFE797E796AEADBFAD61
:2012A000E7976D917D91E796BFAFAEAFE797072E000C880B990B0E94790A4B015C01E99619
:2012C000EEADFFADE99761917191E996FFAFEEAFE997072E000C880B990B0E94790AA501C6
:2012E00094010E940F0CA30192010E94B40AA50194010E94100C20E030E040E05FE30E94F8
:20130000100C0E94EE0CE5968EAD9FADE5970E947802E5962EAD3FADE5972D5F3F4FE59628
:201320003FAF2EAFE597E3968EAD9FADE397E796AEADBFADE7978A179B0709F0AECF12144B
:20134000130454F4C358DF4F688179818A819B81CD57D0400E94F800BFEFCB1ADB0AEC1495
:20136000FD040CF06ECFA1968EAD9FADA1979093010180930001A3968EAD9FADA3979093E7
:20138000030180930201A5968EAD9FADA5979093050180930401A7968EAD9FADA7979093CF
:2013A000070180930601A9968EAD9FADA9979093090180930801AB968EAD9FADAB9790938F
:2013C0000B0180930A0186EA91E00E94F40280E0C82E81E0D82EF12CE12CF6016191719198
:2013E0006F01072E000C880B990B97FF21C00E944503F5E0EF16F10421F08CEB91E00E943A
:20140000F4022FEFE21AF20A36E0E316F10429F78FEB91E00E94F402B801110F880B990B09
:201420004AE00E94010380E391E00E94F40293CE4AE00E940103DDCFFC0188279927E894AB
:2014400021912032E9F3293010F02E30C8F32B3241F02D3239F4689404C00E94660A820FBD
:20146000911D219120532A30C0F31EF4909581959F4F08954CEA52E00E943F0A0895FA01C9
:20148000A191B081009719F41097E1F0CD01DC01CD010D90002011F4C00113C0FB01219150
:2014A000222319F02015D9F7F3CFFB012191201519F41E92119606C02223C1F70D90002050
:2014C000A1F7D001FA01A193B08308957AE0979F902D879F802D910D1124089591110C94D2
:2014E000210B803219F089508550C8F70895E89409C097FB3EF490958095709561957F4FEF
:201500008F4F9F4F9923A9F0F92F96E9BB279395F695879577956795B795F111F8CFFAF447
:20152000BB0F11F460FF1BC06F5F7F4F8F4F9F4F16C0882311F096E911C0772321F09EE837
:20154000872F762F05C0662371F096E8862F70E060E02AF09A95660F771F881FDAF7880F5B
:201560009695879597F908950E94C70A0C943B0B0E942D0B38F00E94340B20F0952311F0F2
:201580000C94240B0C942A0B11240C946F0B0E944C0B70F3959FC1F3950F50E0551F629FCB
:2015A000F001729FBB27F00DB11D639FAA27F00DB11DAA1F649F6627B00DA11D661F829F64
:2015C0002227B00DA11D621F739FB00DA11D621F839FA00D611D221F749F3327A00D611D92
:2015E000231F849F600D211D822F762F6A2F11249F5750409AF0F1F088234AF0EE0FFF1FC6
:20160000BB1F661F771F881F91505040A9F79E3F510580F00C94240B0C946F0B5F3FE4F31C
:20162000983ED4F3869577956795B795F795E7959F5FC1F7FE2B880F911D9695879597F99B
:20164000089599278827089597F99F6780E870E060E008959FEF80EC089500240A94161631
:20166000170618060906089500240A9412161306140605060895092E0394000C11F4882334
:2016800052F0BB0F40F4BF2B11F460FF04C06F5F7F4F8F4F9F4F089557FD9058440F551FF0
:2016A00059F05F3F71F04795880F97FB991F61F09F3F79F087950895121613061406551F05
:2016C000F2CF4695F1DF08C0161617061806991FF1CF86957105610508940895E894BB2769
:2016E00066277727CB0197F90895052E97FB1EF400940E948C0B57FD07D00E94DE0B07FC69
:2017000003D04EF40C948C0B50954095309521953F4F4F4F5F4F089590958095709561959C
:201720007F4F8F4F9F4F08950E94000CA59F900DB49F900DA49F800D911D11240895B7FFED
:201740000C94940B0E94940B821B930B08952F923F924F925F926F927F928F929F92AF9228
:20176000BF92CF92DF92EF92FF920F931F93CF93DF93CDB7DEB7CA1BDB0B0FB6F894DEBF3A
:201780000FBECDBF09942A88398848885F846E847D848C849B84AA84B984C884DF80EE8087
:2017A000FD800C811B81AA81B981CE0FD11D0FB6F894DEBF0FBECDBFED010895A1E21A2EB6
:2017C000AA1BBB1BFD010DC0AA1FBB1FEE1FFF1FA217B307E407F50720F0A21BB30BE40B01
:2017E000F50B661F771F881F991F1A9469F760957095809590959B01AC01BD01CF010895B9
:20180000A29FB001B39FC001A39F700D811D1124911DB29F700D811D1124911D08955058EF
:20182000BB27AA270E94270C0C943B0B0E942D0B38F00E94340B20F039F49F3F19F426F415
:201840000C942A0B0EF4E095E7FB0C94240BE92F0E944C0B58F3BA17620773078407950754
:2018600020F079F4A6F50C946E0B0EF4E0950B2EBA2FA02D0B01B90190010C01CA01A00101
:201880001124FF27591B99F0593F50F4503E68F11A16F040A22F232F342F4427585FF3CF63
:2018A000469537952795A795F0405395C9F77EF41F16BA0B620B730B840BBAF09150A1F0AF
:2018C000FF0FBB1F661F771F881FC2F70EC0BA0F621F731F841F48F4879577956795B795AC
:2018E000F7959E3F08F0B0CF9395880F08F09927EE0F9795879508950E94900C0C943B0B8B
:201900000E94340B58F00E942D0B40F029F45F3F29F00C94240B51110C946F0B0C942A0BA0
:201920000E944C0B68F39923B1F3552391F3951B550BBB27AA2762177307840738F09F5F90
:201940005F4F220F331F441FAA1FA9F335D00E2E3AF0E0E832D091505040E695001CCAF790
:201960002BD0FE2F29D0660F771F881FBB1F261737074807AB07B0E809F0BB0B802DBF017A
:20198000FF2793585F4F3AF09E3F510578F00C94240B0C946F0B5F3FE4F3983ED4F38695AD
:2019A00077956795B795F7959F5FC9F7880F911D9695879597F90895E1E0660F771F881F5D
:2019C000BB1F621773078407BA0720F0621B730B840BBA0BEE1F88F7E09508950E94F50C4E
:2019E0006894B1110C946F0B08950E94540B88F09F5798F0B92F9927B751B0F0E1F0660FE5
:201A0000771F881F991F1AF0BA95C9F714C0B13091F00E946E0BB1E008950C946E0B672F8A
:201A2000782F8827B85F39F0B93FCCF3869577956795B395D9F73EF49095809570956195B7
:201A40007F4F8F4F9F4F0895991B79E004C0991F961708F0961B881F7A95C9F78095089548
:201A6000EE0FFF1F0590F491E02D09940F931F93CF93DF938230910510F482E090E0E091D0
:201A8000B002F091B10230E020E0B0E0A0E0309799F42115310509F44AC0281B390B24309E
:201AA0003105D8F58A819B816115710589F1FB0193838283FE0111C0408151810281138105
:201AC00048175907E0F04817590799F4109761F012960C93129713961C933296CF01DF91E3
:201AE000CF911F910F9108950093B0021093B102F4CF2115310551F04217530738F0A90109
:201B0000DB019A01BD01DF01F801C1CFEF01F9CF9093B1028093B002CDCFFE01E20FF31F36
:201B2000819391932250310939832883D7CF2091AE023091AF02232B41F420910E013091DD
:201B40000F013093AF022093AE0220910C0130910D012115310541F42DB73EB740911001B5
:201B600050911101241B350BE091AE02F091AF02E217F307A0F42E1B3F0B2817390778F09F
:201B8000AC014E5F5F4F2417350748F04E0F5F1F5093AF024093AE02819391939FCFF0E026
:201BA000E0E09CCFCF93DF930097E9F0FC01329713821282A091B002B091B102ED0130E0F2
:201BC00020E01097A1F420813181820F931F2091AE023091AF022817390709F061C0F09344
:201BE000AF02E093AE02DF91CF910895EA01CE17DF07E8F54A815B819E0141155105B1F777
:201C0000E901FB83EA8349915991C40FD51FEC17FD0761F4808191810296840F951FE9012C
:201C200099838883828193819B838A83F0E0E0E012968D919C9113970097B9F52D913C913E
:201C40001197CD010296820F931F2091AE023091AF022817390739F6309751F51092B10250
:201C60001092B002B093AF02A093AE02BCCFD383C28340815181840F951FC817D90761F425
:201C80004E5F5F4F88819981480F591F518340838A819B81938382832115310509F0B0CF3A
:201CA000F093B102E093B0029ECFFD01DC01C0CF13821282D7CFB0E0A0E0E1E6FEE00C94CE
:201CC000A90B8C01009751F4CB010E94360D8C01C801CDB7DEB7E0E10C94C50BFC01E60FA4
:201CE000F71F9C0122503109E217F30708F49DC0D901CD91DC911197C617D70798F0C530B4
:201D0000D10530F3CE0104978617970708F3C61BD70B2297C193D1936D937C93CF010E9475
:201D2000D20DD6CF5B01AC1ABD0A4C018C0E9D1EA091B002B091B102512C412CF12CE12CA9
:201D4000109731F58091AE029091AF028815990509F05CC04616570608F058C080910C01EC
:201D600090910D01009741F48DB79EB74091100150911101841B950BE817F90708F055C0AF
:201D8000F093AF02E093AE02F90171836083A0CF8D919C91119712966C90129713967C90B7
:201DA0001397A815B90559F56C0142E0C40ED11CCA14DB0420F1AC014A195B09DA0112969D
:201DC000159780F06282738251834083D9016D937C93E114F10471F0D7011396FC93EE93B2
:201DE000129776CF22968C0F9D1FF90191838083F301EFCFF093B102E093B00269CF481632
:201E0000590608F42C017D01D3019ACFCB010E94360D7C01009749F0AE01B8010E94180F50
:201E2000C8010E94D20D870153CF10E000E050CFFB01DC0102C001900D9241505040D8F704
:201E40000895FB01DC0101900D920020E1F70895FB01DC014150504030F08D9101908019E5
:201E600019F40020B9F7881B990B0895FB01DC014150504048F001900D920020C9F701C09E
:201E80001D9241505040E0F70895F894FFCF5A005A005A005A005A005A000000B202800054
:201EA000020003000400050006000700000000000B022B0158015802C9016701BB010D0A16
:201EC000005B52454144595D005B4552524F525D20496E76616C696420636F6D6D616E64AD
:201EE00020666F726D61742E204D757374207374617274207769746820532C005B45525235
:201F00004F525D204578706563746564203620616E676C6573202B20737065656444656CF0
:201F200061792028372076616C75657320746F74616C29005B4F4B5D2055706461746564F2
:201F400020616E676C65733A20002C2000207C20737065656444656C61793D00FFFFFFFF4C
:201F6000FFFFFFFFFFFFFFFFFFFFFFFFFFFFFFFFFFFFFFFFFFFFFFFFFFFFFFFFFFFFFFFF81
:201F8000FFFFFFFFFFFFFFFFFFFFFFFFFFFFFFFFFFFFFFFFFFFFFFFFFFFFFFFFFFFFFFFF61
:201FA000FFFFFFFFFFFFFFFFFFFFFFFFFFFFFFFFFFFFFFFFFFFFFFFFFFFFFFFFFFFFFFFF41
:201FC000FFFFFFFFFFFFFFFFFFFFFFFFFFFFFFFFFFFFFFFFFFFFFFFFFFFFFFFFFFFFFFFF21
:207E0000112484B714BE81FFF0D085E08093810082E08093C00088E18093C10086E08093FC
:207E2000C20080E18093C4008EE0C9D0259A86E020E33CEF91E0309385002093840096BBAD
:207E4000B09BFECF1D9AA8958150A9F7CC24DD2488248394B5E0AB2EA1E19A2EF3E0BF2E79
:207E6000A2D0813461F49FD0082FAFD0023811F0013811F484E001C083E08DD089C0823404
:207E800011F484E103C0853419F485E0A6D080C0853579F488D0E82EFF2485D0082F10E0A0
:207EA000102F00270E291F29000F111F8ED068016FC0863521F484E090D080E0DECF84364D
:207EC00009F040C070D06FD0082F6DD080E0C81680E7D80618F4F601B7BEE895C0E0D1E0ED
:207EE00062D089930C17E1F7F0E0CF16F0E7DF0618F0F601B7BEE89568D007B600FCFDCF1A
:207F0000A601A0E0B1E02C9130E011968C91119790E0982F8827822B932B1296FA010C016F
:207F200087BEE89511244E5F5F4FF1E0A038BF0751F7F601A7BEE89507B600FCFDCF97BE85
:207F4000E89526C08437B1F42ED02DD0F82E2BD03CD0F601EF2C8F010F5F1F4F84911BD0B8
:207F6000EA94F801C1F70894C11CD11CFA94CF0CD11C0EC0853739F428D08EE10CD085E9AE
:207F80000AD08FE07ACF813511F488E018D01DD080E101D065CF982F8091C00085FFFCCF0A
:207FA0009093C60008958091C00087FFFCCF8091C00084FD01C0A8958091C6000895E0E68F
:207FC000F0E098E1908380830895EDDF803219F088E0F5DFFFCF84E1DECF1F93182FE3DF47
:207FE0001150E9F7F2DF1F91089580E0E8DFEE27FF270994FFFFFFFFFFFFFFFFFFFF040425
:00000001FF
