:200000000C945D000C9485000C9485000C9485000C9485000C9485000C9485000C948500E0
:200020000C9485000C9485000C9485000C9483040C9485000C9485000C9485000C94850096
:200040000C94E1030C9485000C9451040C942B040C9485000C9485000C9485000C9485009F
:200060000C9485000C94850000000000240027002A0000000000250028002B000404040439
:200080000404040402020202020203030303030301020408102040800102040810200102F1
:2000A0000408102000000008000201000003040700000000000000003F0511241FBECFEFD7
:2000C000D8E0DEBFCDBF11E0A0E0B1E0EEE8FEE102C005900D92AE3CB107D9F722E0AEEC84
:2000E000B1E001C01D92A23BB207E1F710E0CDE5D0E004C02197FE010E94300DCC35D1070C
:20010000C9F70E94A4050C94450F0C94000090E0FC01EC55FF4F2491FC01E057FF4F349148
:20012000FC01E458FF4FE491EE23C9F0222339F0233001F1A8F4213019F1223029F1F0E013
:20014000EE0FFF1FEE58FF4FA591B4918FB7F894EC91611126C030953E233C938FBF0895EE
:200160002730A9F02830C9F0243049F7809180008F7D03C0809180008F7780938000DFCFB2
:2001800084B58F7784BDDBCF84B58F7DFBCF8091B0008F778093B000D2CF8091B0008F7D2E
:2001A000F9CF3E2BDACF3FB7F8948091D0019091D101A091D201B091D30126B5A89B05C012
:2001C0002F3F19F00196A11DB11D3FBFBA2FA92F982F8827BC01CD01620F711D811D911D7A
:2001E00042E0660F771F881F991F4A95D1F708958F929F92AF92BF92CF92DF92EF92FF9267
:200200004B015C010E94D3006B017C010E94D3006C197D098E099F09683E734081059105A3
:20022000A8F321E0821A9108A108B10888EEC80E83E0D81EE11CF11C81149104A104B10458
:2002400029F7FF90EF90DF90CF90BF90AF909F908F9008950895AF92BF92CF92DF92EF92A7
:20026000FF920F931F93CF93DF936C017B018B01040F151FEB015E01AE18BF08C017D10782
:2002800059F06991D601ED91FC910190F081E02DC6010995892B79F7C501DF91CF911F915B
:2002A0000F91FF90EF90DF90CF90BF90AF900895FC01538D448D252F30E0842F90E0821BC5
:2002C000930B541710F0CF96089501970895FC01918D828D981761F0A28DAE0FBF2FB11D0C
:2002E0005D968C91928D9F5F9F73928F90E008958FEF9FEF08952FB7F8948091D40190916F
:20030000D501A091D601B091D7012FBF8093E0019093E101A093E201B093E30188ED91E0DC
:200320000E94670197FF26C02FB7F8948091D4019091D501A091D601B091D7012FBF409108
:20034000E0015091E1016091E2017091E301841B950BA60BB70B4091DC015091DD01609130
:20036000DE017091DF0184179507A607B707B0F28FEF9FEF0895FC01918D828D981731F0D6
:20038000828DE80FF11D858D90E008958FEF9FEF0895FC01918D228D892F90E0805C9F4FC5
:2003A000821B91098F739927089588ED91E00E94C90121E0892B09F420E0822F089580E0F5
:2003C00090E0892B29F00E94D50181110C9400000895FC01A48DA80FB92FB11DA35ABF4FF3
:2003E0002C91848D90E001968F739927848FA689B7892C93A089B1898C91837080648C93AF
:20040000938D848D981306C00288F389E02D80818F7D80830895EF92FF920F931F93CF93B2
:20042000DF93EC0181E0888F9B8D8C8D98131AC0E889F989808185FF15C09FB7F894EE8979
:20044000FF896083E889F98980818370806480839FBF81E090E0DF91CF911F910F91FF9085
:20046000EF900895F62E0B8D10E00F5F1F4F0F731127E02E8C8D8E110CC00FB607FCFACFFB
:20048000E889F989808185FFF5CFCE010E94E901F1CFEB8DEC0FFD2FF11DE35AFF4FF0825B
:2004A0009FB7F8940B8FEA89FB8980818062CFCFCF93DF93EC01888D8823B9F0AA89BB89A7
:2004C000E889F9898C9185FD03C0808186FD0DC00FB607FCF7CF8C9185FFF2CF808185FF01
:2004E000EDCFCE010E94E901E9CFDF91CF910895CF92DF92EF92FF92CF93DF93EC01603289
:2005000082E07807CCF5653B710514F064EB70E0898128E830E0281B310987FD3395220F5C
:20052000331F220F331F6901330FEE08FF088A8128E532E0281B310987FD3395220F331FC7
:20054000220F331F032E000C440B550B2C193D094E095F09DB0177FF02C0B0E0A0E00E941C
:200560009F0B24EB30E040E050E00E94750BC20ED31EE41EF51EB601E881EC3070F529811F
:2005800088E890E0821B910927FD9395880F991F880F991F681779077CF02A8188E592E065
:2005A000821B910927FD9395880F991F880F991F681779070CF4CB010297880F991F4FB761
:2005C000F8942E2F30E0F901EE0FFF1FE20FF31FEB58FD4F928381834FBFDF91CF91FF90F5
:2005E000EF90DF90CF900895FC0101900020E9F73197AF01481B590BBC0188ED91E00C9401
:200600002B018F929F92AF92BF920F931F93CF93DF93CDB7DEB7A1970FB6F894DEBF0FBE96
:20062000CDBF19A2423008F44AE08E010F5D1F4F842E912CB12CA12CA50194010E94DE0B93
:20064000E62FB901CA01EA30F4F4E05DD801EE938D01232B242B252B79F790E080E0109705
:2006600019F0CD010E94F402A1960FB6F894DEBF0FBECDBFDF91CF911F910F91BF90AF90DF
:200680009F908F900895E95CE1CFCF92DF92EF92FF92CF93DF936B017C016DE288ED91E0A4
:2006A0000E940B02EC0166277727CB016C197D098E099F094AE00E9401038C0F9D1FDF91C6
:2006C000CF91FF90EF90DF90CF900895CF93DF930E94F402EC0180E391E00E94F4028C0FE1
:2006E0009D1FDF91CF910895CF93DF93EC0188819981009711F00E94D20D198218821D8200
:200700001C821B821A82DF91CF910895FC0180819181009711F00C94D20D08950F931F937D
:20072000CF93DF93EC0188819981009759F02A813B812617370730F081E0DF91CF911F9112
:200740000F9108958B016F5F7F4F0E945B0E009759F0998388831B830A832C813D81232B3E
:2007600059F7FC011082E8CF80E0E7CFEF92FF920F931F93CF93DF938C017B01EB01099005
:200780000020E9F72197C61BD70BBE010E948E03811109C0C801DF91CF911F910F91FF9019
:2007A000EF900C947403F801D583C483B70180819181DF91CF911F910F91FF90EF900C9472
:2007C000210F1F920F920FB60F9211242F933F938F939F93AF93BF938091D4019091D501A3
:2007E000A091D601B091D7013091CF0123E0230F2D3758F50196A11DB11D2093CF018093A8
:20080000D4019093D501A093D601B093D7018091D0019091D101A091D201B091D301019660
:20082000A11DB11D8093D0019093D101A093D201B093D301BF91AF919F918F913F912F91C6
:200840000F900FBE0F901F90189526E8230F0296A11DB11DD2CF1F920F920FB60F9211243F
:200860002F933F934F935F936F937F938F939F93AF93BF93EF93FF9388ED91E00E94E9018E
:20088000FF91EF91BF91AF919F918F917F916F915F914F913F912F910F900FBE0F901F903E
:2008A00018951F920F920FB60F9211242F938F939F93EF93FF93E091E801F091E9018081AE
:2008C000E091EE01F091EF0182FD1BC090818091F1018F5F8F732091F201821741F0E0910A
:2008E000F101F0E0E852FE4F958F8093F101FF91EF919F918F912F910F900FBE0F901F90AC
:2009000018958081F4CF1F920F920FB60F9211242F933F934F935F936F937F938F939F93A9
:20092000AF93BF93CF93DF93EF93FF938091CE01C0919902D0E087FF24C01092850010928C
:2009400084008091CE018F5F8093CE018091CE01082E000C990B8C179D0724F48091CE015E
:200960008C30C4F18091840090918500049680349C4908F47AC0809184009091850004968D
:2009800076C08091CE01082E000C990B8C179D07C4F6E091CE018E2FEE0F990BFC01EE0FC2
:2009A000FF1FE80FF91FEB58FD4F808186FFC9CFE091CE018E2FEE0F990BFC01EE0FFF1FA7
:2009C000E80FF91FEB58FD4F808160E08F730E948700B7CF2091840030918500E091CE01CC
:2009E0008E2FEE0F990BFC01EE0FFF1FE80FF91FEB58FD4F81819281820F931F90938900DF
:200A000080938800E091CE018E2FEE0F990BFC01EE0FFF1FE80FF91FEB58FD4F808186FF61
:200A200011C0E091CE018E2FEE0F990BFC01EE0FFF1FE80FF91FEB58FD4F808161E08F734D
:200A40000E948700FF91EF91DF91CF91BF91AF919F918F917F916F915F914F913F912F913D
:200A60000F900FBE0F901F90189580E49CE990938900809388008FEF8093CE01E3CF10922B
:200A8000DB011092DA0188EE93E0A0E0B0E08093DC019093DD01A093DE01B093DF0182E27A
:200AA00091E09093D9018093D80185EC90E09093E5018093E40184EC90E09093E7018093FC
:200AC000E60180EC90E09093E9018093E80181EC90E09093EB018093EA0182EC90E090935F
:200AE000ED018093EC0186EC90E09093EF018093EE011092F1011092F2011092F3011092B0
:200B0000F401EAE9F2E02CEA32E04FEF68EB7BE0809199028C30B0F491E0980F9093990245
:200B2000808390E0DC01AA0FBB1FA80FB91FAB58BD4F12967C936E93119733962E173F0780
:200B400039F708954083F9CFCF93DF93CDB7DEB7C258D1090FB6F894DEBF0FBECDBF789409
:200B600084B5826084BD84B5816084BD85B5826085BD85B5816085BD80916E008160809390
:200B80006E0010928100809181008260809381008091810081608093810080918000816043
:200BA000809380008091B10084608093B1008091B00081608093B00080917A008460809351
:200BC0007A0080917A00826080937A0080917A00816080937A0080917A00806880937A00A8
:200BE0001092C100E091E801F091E90182E08083E091E401F091E5011082E091E601F09140
:200C0000E70180E180831092F001E091EC01F091ED0186E08083E091EA01F091EB018081F5
:200C200080618083E091EA01F091EB01808188608083E091EA01F091EB0180818068808366
:200C4000E091EA01F091EB0180818F7D80839CE0C92E91E0D92E00E011E02AE9E22E22E0DA
:200C6000F22E6AE570E0C7010E9478028AE590E0D8018D939D938D01B3E0EB0EF11CC016CC
:200C8000D10679F722E131E04CEA52E0AAE9B2E0FCE0FF2E82E0E82E8C918C3008F071C0E9
:200CA000F90160817181CB019927FC01E057FF4F9490FC01E458FF4FE491EE23A9F08E2FD2
:200CC00090E0880F991FFC01E859FF4FC590D490FC01EE58FF4FA590B4908FB7F894F6013D
:200CE0009081992A90828FBF8C91C82ED12CF601EE0FFF1FEC0DFD1DEB58FD4F962F9F7325
:200D00006081607C692B608311961C92119712961C9212976F2D0E94240D8F9D6001112472
:200D200070E060E05601A60EB71EF501EE0FFF1FEA0DFB1DEB58FD4F908196FD15C06F5F4D
:200D40007F4F6C30710571F781110EC010928000E09281001092850010928400B19A80912D
:200D60006F00826080936F00EC918E2F90E0FC01EE0FFF1FE80FF91FEB58FD4F808180645B
:200D8000808313962E5F3F4F4A175B0709F084CF20E031E0E3963FAF2EAFE3974AE9E42E69
:200DA00042E0F42E6AE570E0C7010E9478028AE590E0E396AEADBFADE3978D939D93E3960A
:200DC000BFAFAEAFE397B3E0EB0EF11CE396EEADFFADE397E017F10729F764EF71E080E0E8
:200DE00090E00E94F80083E391E00E9466032FE530E02C0F3D1F245F3F4FCF57DF4F39832B
:200E00002883C158D04088ED91E00E94C901892B09F4A6C1AD961FAE1EAEAD97AF961FAE62
:200E20001EAEAF97E1961FAE1EAEE19762E371E0CE0185599F4F0E94B6030E947B01E196F7
:200E40000EAD1FADE19797FD23C08A30910501F189831A820F5F1F4FB801CE0185599F4F02
:200E60000E948E03882349F3AD962EAD3FADAD97E1968EAD9FADE197BE016F5F7F4F820FA8
:200E8000931F0E94210FE1961FAF0EAFE197D5CFAD96CEACDFACAD97C114D10429F07601EA
:200EA0000115110509F0DCC0E1968EAD9FADE197892B09F450C11A8219821C821B821E8227
:200EC0001D826BE671E0CE0101960E94B6034D815E81E1968EAD9FADE1978417950780F046
:200EE000AD968EAD9FADAD97009751F069817A816115710529F00E94280F11E0892B09F0AB
:200F000010E0CE0101960E9486038BE391E0112309F41FC1E196EEACFFACE19722E0C22E3A
:200F2000D12CF2E0EF16F10420F0670132E0E32EF12C1A8219821C821B821E821D8262E33A
:200F400071E0CE0101960E94B603E1960EAD1FADE197E016F10680F5C016D10608F4860177
:200F6000AD96EEADFFADAD97E00FF11FB0801082AD968EAD9FADAD97E80EF91EE114F104DD
:200F800079F0F70101900020E9F731976F01CE18DF08B601CE0101960E948E0381119CC01C
:200FA000CE0101960E947403AD968EAD9FADAD97080F191FD801BC92AD968EAD9FADAD9720
:200FC000009709F493C069817A816115710509F48BC0AF964EAD5FADAF972D813E814217B9
:200FE000530708F481C00E94210F8D819E81E1969FAF8EAFE1971E821D82CE0101960E949A
:201000008603E1960EAD1FADE1970115110509F084C019826CE671E0CE0101960E943A0ADE
:201020008E010F5A1F4F6801F12CE12C5801009709F489C0B7E0EB16F10409F49EC00E94F7
:201040001C0AF601819391936F016CE671E090E080E00E943A0AFFEFEF1AFF0AE8CF750145
:2010600057013FEFA31AB30AD7018C91082E000C990B0E946E0A892B91F7015011090C0DBB
:201080001D1DF8018081082E000C990B0E946E0A892B31F00E151F0518F001501109F1CFCD
:2010A0000F5F1F4FA8014E195F09E1965FAF4EAFE197CE14DF0420F4B701C6010E94180FC1
:2010C000AD96EEADFFADAD97E1968EAD9FADE197E80FF91F1082E8CEDE82CD82B701898104
:2010E0009A810E94210F60CF0E94D20D89819A81AD969FAF8EAFAD978B819C81AF969FAF60
:201100008EAFAF978D819E81E1969FAF8EAFE1971A8219821C821B826ECF0F34110510F09D
:201120000FE410E0AD966EAD7FADAD97A801CE0101960E94360FE1E0F0E0EC0FFD1FE00F71
:20114000F11F108267CF27E0E216F104B1F08EE691E00E946603CE0185599F4F0E9486036C
:2011600080E090E0892B09F44ECE0E94D501882309F449CE0E94000046CE9801245F3F4F3B
:20118000FE01E15AFF4FD8018D919D918D01853B910514F084EB90E097FF02C090E080E0B3
:2011A000819391930217130771F7F501248435848101F5E12F16310414F004E110E017FF44
:2011C00002C010E000E0A0E0B1E0FE01E15AFF4FF12CE12C819191912D913D91821B930BBF
:2011E00097FF03C0919581959109E816F9060CF47C01CF57DF4F28813981C158D040E2176D
:20120000F30741F7E114F10409F4DDC0CC24C394D12CC7010F2C000CAA0BBB0BED968CAF8C
:201220009DAFAEAFBFAFED97C801012E000CAA0BBB0BC358DF4F88839983AA83BB83CD5795
:20124000D040B6010D2C000C880B990B0E94790A4B015C01ED966CAD7DAD8EAD9FADED97AC
:201260000E94790A9B01AC01C501B4010E947C0C2B013C01AAE9B2E0E596BFAFAEAFE5970B
:20128000FE01E15AFF4FE996FFAFEEAFE99720E031E0E7963FAF2EAFE797E796AEADBFAD61
:2012A000E7976D917D91E796BFAFAEAFE797072E000C880B990B0E94790A4B015C01E99619
:2012C000EEADFFADE99761917191E996FFAFEEAFE997072E000C880B990B0E94790AA501C6
:2012E00094010E940F0CA30192010E94B40AA50194010E94100C20E030E040E05FE30E94F8
:20130000100C0E94EE0CE5968EAD9FADE5970E947802E5962EAD3FADE5972D5F3F4FE59628
:201320003FAF2EAFE597E3968EAD9FADE397E796AEADBFADE7978A179B0709F0AECF12144B
:20134000130454F4C358DF4F688179818A819B81CD57D0400E94F800BFEFCB1ADB0AEC1495
:20136000FD040CF06ECFA1968EAD9FADA1979093010180930001A3968EAD9FADA3979093E7
:20138000030180930201A5968EAD9FADA5979093050180930401A7968EAD9FADA7979093CF
:2013A000070180930601A9968EAD9FADA9979093090180930801AB968EAD9FADAB9790938F
:2013C0000B0180930A0186EA91E00E94F40280E0C82E81E0D82EF12CE12CF6016191719198
:2013E0006F01072E000C880B990B97FF21C00E944503F5E0EF16F10421F08CEB91E00E943A
:20140000F4022FEFE21AF20A36E0E316F10429F78FEB91E00E94F402B801110F880B990B09
:201420004AE00E94010380E391E00E94F40293CE4AE00E940103DDCFFC0188279927E894AB
:2014400021912032E9F3293010F02E30C8F32B3241F02D3239F4689404C00E94660A820FBD
:20146000911D219120532A30C0F31EF4909581959F4F08954CEA52E00E943F0A0895FA01C9
:20148000A191B081009719F41097E1F0CD01DC01CD010D90002011F4C00113C0FB01219150
:2014A000222319F02015D9F7F3CFFB012191201519F41E92119606C02223C1F70D90002050
:2014C000A1F7D001FA01A193B08308957AE0979F902D879F802D910D1124089591110C94D2
:2014E000210B803219F089508550C8F70895E89409C097FB3EF490958095709561957F4FEF
:201500008F4F9F4F9923A9F0F92F96E9BB279395F695879577956795B795F111F8CFFAF447
:20152000BB0F11F460FF1BC06F5F7F4F8F4F9F4F16C0882311F096E911C0772321F09EE837
:20154000872F762F05C0662371F096E8862F70E060E02AF09A95660F771F881FDAF7880F5B
:201560009695879597F908950E94C70A0C943B0B0E942D0B38F00E94340B20F0952311F0F2
:201580000C94240B0C942A0B11240C946F0B0E944C0B70F3959FC1F3950F50E0551F629FCB
:2015A000F001729FBB27F00DB11D639FAA27F00DB11DAA1F649F6627B00DA11D661F829F64
:2015C0002227B00DA11D621F739FB00DA11D621F839FA00D611D221F749F3327A00D611D92
:2015E000231F849F600D211D822F762F6A2F11249F5750409AF0F1F088234AF0EE0FFF1FC6
:20160000BB1F661F771F881F91505040A9F79E3F510580F00C94240B0C946F0B5F3FE4F31C
:20162000983ED4F3869577956795B795F795E7959F5FC1F7FE2B880F911D9695879597F99B
:20164000089599278827089597F99F6780E870E060E008959FEF80EC089500240A94161631
:20166000170618060906089500240A9412161306140605060895092E0394000C11F4882334
:2016800052F0BB0F40F4BF2B11F460FF04C06F5F7F4F8F4F9F4F089557FD9058440F551FF0
:2016A00059F05F3F71F04795880F97FB991F61F09F3F79F087950895121613061406551F05
:2016C000F2CF4695F1DF08C0161617061806991FF1CF86957105610508940895E894BB2769
:2016E00066277727CB0197F90895052E97FB1EF400940E948C0B57FD07D00E94DE0B07FC69
:2017000003D04EF40C948C0B50954095309521953F4F4F4F5F4F089590958095709561959C
:201720007F4F8F4F9F4F08950E94000CA59F900DB49F900DA49F800D911D11240895B7FFED
:201740000C94940B0E94940B821B930B08952F923F924F925F926F927F928F929F92AF9228
:20176000BF92CF92DF92EF92FF920F931F93CF93DF93CDB7DEB7CA1BDB0B0FB6F894DEBF3A
:201780000FBECDBF09942A88398848885F846E847D848C849B84AA84B984C884DF80EE8087
:2017A000FD800C811B81AA81B981CE0FD11D0FB6F894DEBF0FBECDBFED010895A1E21A2EB6
:2017C000AA1BBB1BFD010DC0AA1FBB1FEE1FFF1FA217B307E407F50720F0A21BB30BE40B01
:2017E000F50B661F771F881F991F1A9469F760957095809590959B01AC01BD01CF010895B9
:20180000A29FB001B39FC001A39F700D811D1124911DB29F700D811D1124911D08955058EF
:20182000BB27AA270E94270C0C943B0B0E942D0B38F00E94340B20F039F49F3F19F426F415
:201840000C942A0B0EF4E095E7FB0C94240BE92F0E944C0B58F3BA17620773078407950754
:2018600020F079F4A6F50C946E0B0EF4E0950B2EBA2FA02D0B01B90190010C01CA01A00101
:201880001124FF27591B99F0593F50F4503E68F11A16F040A22F232F342F4427585FF3CF63
:2018A000469537952795A795F0405395C9F77EF41F16BA0B620B730B840BBAF09150A1F0AF
:2018C000FF0FBB1F661F771F881FC2F70EC0BA0F621F731F841F48F4879577956795B795AC
:2018E000F7959E3F08F0B0CF9395880F08F09927EE0F9795879508950E94900C0C943B0B8B
:201900000E94340B58F00E942D0B40F029F45F3F29F00C94240B51110C946F0B0C942A0BA0
:201920000E944C0B68F39923B1F3552391F3951B550BBB27AA2762177307840738F09F5F90
:201940005F4F220F331F441FAA1FA9F335D00E2E3AF0E0E832D091505040E695001CCAF790
:201960002BD0FE2F29D0660F771F881FBB1F261737074807AB07B0E809F0BB0B802DBF017A
:20198000FF2793585F4F3AF09E3F510578F00C94240B0C946F0B5F3FE4F3983ED4F38695AD
:2019A00077956795B795F7959F5FC9F7880F911D9695879597F90895E1E0660F771F881F5D
:2019C000BB1F621773078407BA0720F0621B730B840BBA0BEE1F88F7E09508950E94F50C4E
:2019E0006894B1110C946F0B08950E94540B88F09F5798F0B92F9927B751B0F0E1F0660FE5
:201A0000771F881F991F1AF0BA95C9F714C0B13091F00E946E0BB1E008950C946E0B672F8A
:201A2000782F8827B85F39F0B93FCCF3869577956795B395D9F73EF49095809570956195B7
:201A40007F4F8F4F9F4F0895991B79E004C0991F961708F0961B881F7A95C9F78095089548
:201A6000EE0FFF1F0590F491E02D09940F931F93CF93DF938230910510F482E090E0E091D0
:201A8000B002F091B10230E020E0B0E0A0E0309799F42115310509F44AC0281B390B24309E
:201AA0003105D8F58A819B816115710589F1FB0193838283FE0111C0408151810281138105
:201AC00048175907E0F04817590799F4109761F012960C93129713961C933296CF01DF91E3
:201AE000CF911F910F9108950093B0021093B102F4CF2115310551F04217530738F0A90109
:201B0000DB019A01BD01DF01F801C1CFEF01F9CF9093B1028093B002CDCFFE01E20FF31F36
:201B2000819391932250310939832883D7CF2091AE023091AF02232B41F420910E013091DD
:201B40000F013093AF022093AE0220910C0130910D012115310541F42DB73EB740911001B5
:201B600050911101241B350BE091AE02F091AF02E217F307A0F42E1B3F0B2817390778F09F
:201B8000AC014E5F5F4F2417350748F04E0F5F1F5093AF024093AE02819391939FCFF0E026
:201BA000E0E09CCFCF93DF930097E9F0FC01329713821282A091B002B091B102ED0130E0F2
:201BC00020E01097A1F420813181820F931F2091AE023091AF022817390709F061C0F09344
:201BE000AF02E093AE02DF91CF910895EA01CE17DF07E8F54A815B819E0141155105B1F777
:201C0000E901FB83EA8349915991C40FD51FEC17FD0761F4808191810296840F951FE9012C
:201C200099838883828193819B838A83F0E0E0E012968D919C9113970097B9F52D913C913E
:201C40001197CD010296820F931F2091AE023091AF022817390739F6309751F51092B10250
:201C60001092B002B093AF02A093AE02BCCFD383C28340815181840F951FC817D90761F425
:201C80004E5F5F4F88819981480F591F518340838A819B81938382832115310509F0B0CF3A
:201CA000F093B102E093B0029ECFFD01DC01C0CF13821282D7CFB0E0A0E0E1E6FEE00C94CE
:201CC000A90B8C01009751F4CB010E94360D8C01C801CDB7DEB7E0E10C94C50BFC01E60FA4
:201CE000F71F9C0122503109E217F30708F49DC0D901CD91DC911197C617D70798F0C530B4
:201D0000D10530F3CE0104978617970708F3C61BD70B2297C193D1936D937C93CF010E9475
:201D2000D20DD6CF5B01AC1ABD0A4C018C0E9D1EA091B002B091B102512C412CF12CE12CA9
:201D4000109731F58091AE029091AF028815990509F05CC04616570608F058C080910C01EC
:201D600090910D01009741F48DB79EB74091100150911101841B950BE817F90708F055C0AF
:201D8000F093AF02E093AE02F90171836083A0CF8D919C91119712966C90129713967C90B7
:201DA0001397A815B90559F56C0142E0C40ED11CCA14DB0420F1AC014A195B09DA0112969D
:201DC000159780F06282738251834083D9016D937C93E114F10471F0D7011396FC93EE93B2
:201DE000129776CF22968C0F9D1FF90191838083F301EFCFF093B102E093B00269CF481632
:201E0000590608F42C017D01D3019ACFCB010E94360D7C01009749F0AE01B8010E94180F50
:201E2000C8010E94D20D870153CF10E000E050CFFB01DC0102C001900D9241505040D8F704
:201E40000895FB01DC0101900D920020E1F70895FB01DC014150504030F08D9101908019E5
:201E600019F40020B9F7881B990B0895FB01DC014150504048F001900D920020C9F701C09E
:201E80001D9241505040E0F70895F894FFCF5A005A005A005A005A005A000000B202800054
:201EA000020003000400050006000700000000000B022B0158015802C9016701BB010D0A16
:201EC000005B52454144595D005B4552524F525D20496E76616C696420636F6D6D616E64AD
:201EE00020666F726D61742E204D757374207374617274207769746820532C005B45525235
:201F00004F525D204578706563746564203620616E676C6573202B20737065656444656CF0
:201F200061792028372076616C75657320746F74616C29005B4F4B5D2055706461746564F2
:201F400020616E676C65733A20002C2000207C20737065656444656C61793D00FFFFFFFF4C
:201F6000FFFFFFFFFFFFFFFFFFFFFFFFFFFFFFFFFFFFFFFFFFFFFFFFFFFFFFFFFFFFFFFF81
:201F8000FFFFFFFFFFFFFFFFFFFFFFFFFFFFFFFFFFFFFFFFFFFFFFFFFFFFFFFFFFFFFFFF61
:201FA000FFFFFFFFFFFFFFFFFFFFFFFFFFFFFFFFFFFFFFFFFFFFFFFFFFFFFFFFFFFFFFFF41
:201FC000FFFFFFFFFFFFFFFFFFFFFFFFFFFFFFFFFFFFFFFFFFFFFFFFFFFFFFFFFFFFFFFF21
:207E0000112484B714BE81FFF0D085E08093810082E08093C00088E18093C10086E08093FC
:207E2000C20080E18093C4008EE0C9D0259A86E020E33CEF91E0309385002093840096BBAD
:207E4000B09BFECF1D9AA8958150A9F7CC24DD2488248394B5E0AB2EA1E19A2EF3E0BF2E79
:207E6000A2D0813461F49FD0082FAFD0023811F0013811F484E001C083E08DD089C0823404
:207E800011F484E103C0853419F485E0A6D080C0853579F488D0E82EFF2485D0082F10E0A0
:207EA000102F00270E291F29000F111F8ED068016FC0863521F484E090D080E0DECF84364D
:207EC00009F040C070D06FD0082F6DD080E0C81680E7D80618F4F601B7BEE895C0E0D1E0ED
:207EE00062D089930C17E1F7F0E0CF16F0E7DF0618F0F601B7BEE89568D007B600FCFDCF1A
:207F0000A601A0E0B1E02C9130E011968C91119790E0982F8827822B932B1296FA010C016F
:207F200087BEE89511244E5F5F4FF1E0A038BF0751F7F601A7BEE89507B600FCFDCF97BE85
:207F4000E89526C08437B1F42ED02DD0F82E2BD03CD0F601EF2C8F010F5F1F4F84911BD0B8
:207F6000EA94F801C1F70894C11CD11CFA94CF0CD11C0EC0853739F428D08EE10CD085E9AE
:207F80000AD08FE07ACF813511F488E018D01DD080E101D065CF982F8091C00085FFFCCF0A
:207FA0009093C60008958091C00087FFFCCF8091C00084FD01C0A8958091C6000895E0E68F
:207FC000F0E098E1908380830895EDDF803219F088E0F5DFFFCF84E1DECF1F93182FE3DF47
:207FE0001150E9F7F2DF1F91089580E0E8DFEE27FF270994FFFFFFFFFFFFFFFFFFFF040425
:00000001FF
